:020000040800F2
:1000000090040020D50000088F0D00088D0D000819
:1000100000000000000000000000000000000000E0
:10002000000000000000000000000000930D000828
:100030000000000000000000910D0008950D000870
:10004000000000000000000000000000E7000008C1
:10005000E7000008E7000008E7000008E7000008E4
:100060000000000000000000000000000000000090
:10007000E7000008F50D0008E70000080000000098
:1000800000000000E700000800000000E700000892
:10009000000000000000000000000000E700000871
:1000A00000000000E700000800000000E700000872
:1000B0000000000000000000000000000000000040
:1000C0000348854600F05CF800480047010E000830
:1000D000900400200448804704480047FEE7FEE7FC
:1000E000FEE7FEE7FEE7FEE79D0D0008C100000801
:1000F00070B50446002903D000202022012310E01F
:10010000002801D00020C043C046C0460DE025466F
:10011000D5408D4205D30D469540641B1D46954044
:1001200040191546521E002DF1DC214670BD00001D
:1001300070B5002504462E46002911D0002C01DAA6
:1001400001254442002901DA012649422046FFF7F1
:10015000CFFFB54200D04042002D00D0494270BDD3
:10016000002C02DA0121C90702E0002C00DD03495E
:100170000846C046C046214670BD0000FFFFFF7F15
:100180001CB5094800900948019005460126009CCD
:1001900005E0E36807CC33430C3C98471034AC428D
:1001A000F7D3FFF791FF0000900F0008B00F000891
:1001B000F0B581B004462C20205C012802D1022039
:1001C00001B0F0BD26462C360120307022689368BD
:1001D000216BDB071DD1812040008143881C2063F7
:1001E00001200746C00791680143916000F0BAFA08
:1001F00005462068806800280ED500F0B3FA401B41
:100200000328F6D3206B1021014302208143384696
:1002100006E02022114303E0216B022081430020ED
:1002200000223270216301B0F0BD0000F0B583B050
:100230000246002302932C20105C012802D10220E8
:1002400003B0F0BD019316462C36012030701768BC
:10025000BB685B0716D400960D684B6801242046E6
:10026000A8402F4EB34215D1B96A8143B9622846DE
:10027000A0430828019F3846009E08D1082D1BD0B6
:100280002A481AE0116B20230B431363019F377038
:1002900003B0F0BDBB6A0343BB62906A421E072AEB
:1002A0002DD22846A0430828019F3846009EEED153
:1002B000082D08D0A00507E01B481A490A6802402B
:1002C0000A603846E3E7E00516490A6802430A6017
:1002D000082D3846DBD1BA480068BA49FFF708FF55
:1002E0000A2141430291029800283846CFD0029853
:1002F000401E029002980028F9D13846C7E722072D
:100300009042CED07A690720024089689142C8D0D5
:100310007A6982437A610140786908437861C0E76D
:100320000110000008270140FFFF7FFFFFFFBFFF14
:100330000068006C7047000070B50124002850D0A0
:10034000016B002907D12C2100224254426305464B
:1003500000F086F82846016BC9063ED401688A6819
:1003600052073AD481225200036B93439A1C0263D2
:100370008A68D2070CD1CA6818239A43836813434A
:10038000CB600F2212070B69934342681A430A613C
:10039000CA68314B1340CB60426A521E531E9A41C9
:1003A0001203037E9C03437E5D032543C4680669F4
:1003B0002C431443B21E55425541AA002243847E69
:1003C000012C13D1002B0ED0036B20241C4304639B
:1003D000436B01241C43446308E0016B10220A4371
:1003E0000263204670BD01231B041A43C369FF2426
:1003F000C234A34202D0046A22431A43CB68134397
:10040000CB60836A5C1E072C20D24C690725AC4365
:100410004C612B404C691C434C61C9680F4B0B402D
:10042000934207D100244463016B01220A43022155
:100430008A43D5E7016B10220A4302218A430263F3
:10044000416B012421434163204670BD01242407F0
:10045000A342DAD0E1E7C0461BC2FEFFE7FF3FC37D
:100460007047F0B581B00D4604464669082E00D0AD
:100470000C2600F077F921680A6832421CD001206E
:100480004202236B13432363CA681205920F22D1E1
:10049000627E002A1FD10A6812071CD58A6852079B
:1004A00010D4224630324B680C25AB434B60FF25FD
:1004B00002351368AB430CE0002D23D06F1C009075
:1004C00013D018E0226B20231343236322463432D7
:1004D000636B03431360227E0020002A01D001B029
:1004E000F0BD0C220A6001B0F0BD21680A683242FA
:1004F000C5D1002FFAD000F035F901460098091A4D
:10050000A942F2D92C2000212154206B042101435F
:100510002163032001B0F0BDF0B583B0014604684B
:10052000A268022052072BD42C228A5C012A27D0F1
:100530000D462C3501262E7000200290A268D207AD
:100540000CD1A2681D4B1A421CD0086B102202432A
:100550000A634A6B012002434A630026002E0FD033
:100560000A6B194B1340012212029A180A630022E7
:100570004A631C2121602A70A16804220A43A260F8
:1005800003B0F0BD01910746A06801210143A160BD
:10059000924800680B49FFF7ABFD029002980028D3
:1005A00007D038460299491E029102990029F9D1D3
:1005B00000E038460199002ED2D1E1E71700008013
:1005C0000000002040420F00FEF0FFFFB0B50446DF
:1005D00000F0C8F80546601C02D07F480068041986
:1005E00000F0C0F8401BA042FAD3B0BDF0B58BB00C
:1005F00008900B68002B00D1A9E00E4655480899D9
:10060000814201D0022000E00120052109070024D9
:10061000089A8A42009400D00090089820300190F7
:100620000A942746224604960DE019436960521C3D
:1006300033681846D04008340A99891C0A913F1D36
:10064000002800D183E00125284690400340EED0E9
:10065000039009920794069370683146102606436A
:10066000122E0DD11C2038400F268640099AD4083E
:10067000A400019B1A59B2430E69864016431E51CD
:100680000597084603210A460A9FBA40089B1C6842
:1006900094434068064602910E40BE4026431E60C9
:1006A000D643122815D885402D4A154211D0089DF1
:1006B000AA683240049BDC680A9B9C401443AC60EF
:1006C000C206D20F099B9A406C6803998C4314436D
:1006D0006C60089BD9683140049EB2680A9CA240B5
:1006E0000A43DA60C000069B079C059F099A9ED5C5
:1006F000182020400F218140029CA243164DAA18C9
:10070000146E8C430099814021431166134801689F
:100710007068C20301D5194300E099430F4A116084
:1007200051688203079C01D5194300E099430B4AA5
:1007300051602968C20201D5194300E09943099A22
:1007400029606968800200D56FE799436EE70BB0B6
:10075000F0BDC0460004005000180240801802405E
:1007600006000600054800687047C0461A48006841
:1007700002490A68101808607047C0468C000020C3
:1007800080B5032000F008F8002801D0012080BDCA
:1007900000F028F8002080BDB0B505460E4801687D
:1007A0000124002916D07D20C000FFF7A1FC0146DE
:1007B0000A480068FFF79CFC00F050F8032D09D8A8
:1007C000002807D10024E0432946224600F02AF8F9
:1007D000034805602046B0BD040000200000002052
:1007E0000800002010B583B00D48026801210A43BB
:1007F000026002680A400292029A0A07031F1C68FC
:1008000014431C601B6813400193019A0905026898
:100810000A430260006808400090009803B010BDD1
:1008200040100240002805D4032203469343094A9E
:100830009A1803E00C220240074BD2188007C00E22
:100840008901C9B28140FF2383401068984308435F
:100850001060704700E400E014ED00E0401E010E5F
:1008600001D0012070470749074A506007480368D4
:100870000B4003218907591801600020906007216F
:1008800011607047FFFFFF0010E000E020ED00E086
:100890007047704710B5002813D0817F002905D11B
:1008A00000214177044600F035F820460221817787
:1008B00001680C68154A914205D02346914208D13F
:1008C0000AE0012010BD70239C43836823439142BA
:1008D00002D00F4CA14205D103242402A343046992
:1008E0001C4300E01C4680239C43836923430B6028
:1008F000C368CB6243688B62914201D14369136341
:1009000001224A618277002010BDC046002C0140C0
:1009100000200040F0B587B00026069605960496A4
:10092000039602960120C2021B49CB681343CB6099
:10093000CB6813400193019A0A6802430A600A686F
:1009400002400192019A0A6802231A430A60096868
:100950001940019101990593049003930693802017
:1009600002900520040702AD20462946FFF73EFE0F
:100970000496032703970820029020462946FFF794
:1009800035FE049603971020029020462946FFF773
:100990002DFE07B0F0BDC046341002407047B0B520
:1009A00004468020C54320680169890716D5C168BF
:1009B000890713D529467E3101610121217780699C
:1009C000800703D02046FFF7E9FF05E0204600F04E
:1009D0008AF8204600F0B2F90020207720680169EB
:1009E000490717D5C168490714D529467C310161EB
:1009F0000221217780698005800F03D02046FFF710
:100A0000CDFF05E0204600F06EF8204600F096F994
:100A10000020207720680169090716D5C1680907F9
:100A200013D529467831016104212177C0698007F7
:100A300003D02046FFF7B2FF05E0204600F053F850
:100A4000204600F07BF90020207720680169C90664
:100A500017D5C168C90614D529467031016108212E
:100A60002177C0698005800F03D02046FFF796FFED
:100A700005E0204600F037F8204600F05FF900203E
:100A8000207720680169C90708D0C168C90705D067
:100A900029467F310161204600F076F9206801691E
:100AA000090606D5C168090603D505612046FFF78A
:100AB000EFFE20680169490608D5C168490605D5D9
:100AC000294640310161204600F05FF92068016944
:100AD000890607D5C168890604D5603505612046B9
:100AE000FFF7D7FEB0BD7047F0B583B0437F012B51
:100AF00001D102211DE10225857701234377EA41D7
:100B0000032A00D912E1C0467A4412795200974470
:100B1000014F20370468226A9A432262226AAA435C
:100B20008F681743626802920A680192A669944A24
:100B3000944203D0934DAC4200D0B4E00C25AF43B7
:100B4000CD68042295438E4A3D43944200D0ADE0E7
:100B5000AFE01A020468256A954325625A02256AA5
:100B600095438A6817022F43626802920A680192CD
:100B7000E669F84A944231D03D4694423AD13CE08D
:100B80001A030468256A95432562256A62688E689F
:100B900002960E680196E769EE4EB44202D0794E95
:100BA000B44264D19E03B2434E69B60116435FE07E
:100BB0000468226A1025AA432262226A2025AA43D9
:100BC0008D682F01174362680D680295A569E14E93
:100BD000B4421ED00197B44228D12AE00325AD02C9
:100BE000AF43554AFF3ACD682D021540D94A3D43DF
:100BF000944202D0634A944224D103221203009506
:100C0000029D95434A698F6917433F012F43009D19
:100C100019E0C026B743CE68009535014026B5439C
:100C2000CC4E3D430195009DB44202D0554EB44296
:100C30004AD10326B602B2434E698F693743BF00DB
:100C4000174342E0029F22461C3267607327BE436F
:100C5000019F3E43E6614E68E6632562E56908262A
:100C60002E43E661E5690426B543E5615AE0164680
:100C700022461C32666073263602B743019E360256
:100C80003E43E6614E6826645E03B543029E36032A
:100C90002E432662DD02E6692E43E6619D02E66987
:100CA000AE43E66127E03D46944202D0354A944285
:100CB00024D1032212020093029B93434F698A6955
:100CC0001F43009B17431AE01746224618326760FD
:100CD00073263602B543029E36022E43A6614D6846
:100CE000A563019D2562DD02A6692E43A6619D02D2
:100CF000A669AE43A6610969090214E0029F224673
:100D0000183267607327BE43019F3E43A6614E6859
:100D100066632562A56908262E43A661A569042697
:100D2000B543A561096914680C431460002141773B
:100D30008377084603B0F0BDFFFBFFFF704700005C
:100D40001F220A4001210B4693400068026A9A4321
:100D50000262026A1A4302627E4A904202D0094A43
:100D6000904203D1CA03436C134343648268072350
:100D70001340062B02D002680A430260002070472D
:100D8000002C01400020004070477047FEE770478C
:100D90007047704780B5FFF7E9FC80BD81B00F4810
:100DA00001680F4A0A400F490B889A1802600268CE
:100DB0000D4B1340496CC905C909C91801600120D0
:100DC000C0060A4908600A48009000BF0098411E0A
:100DD00000910028F9D101B07047C04604100240CC
:100DE0000000FFFF0001FF1FFFFF00FE08ED00E015
:100DF000C027090080B55648FFF7D1FD80BDC04629
:100E000088B0FFF7BDFC002507950695059504956C
:100E100003954E4908680124204308600868204073
:100E20000290022007900690059004908020039085
:100E300002980520000703A9FFF7D8FB44485F2666
:100E40004449092266C00560456085601038FFF797
:100E500021FD002800D0FEE73F4960273F48008879
:100E60000F6048608D60CD600D614D618D613848C7
:100E70000C22FFF739FE002800D0FEE7009701960C
:100E80002105324EF0680843F06035480722857628
:100E900005830423FF27C237C7610562456282626A
:100EA0006207304F076042608560C560046143613E
:100EB000F2680A4003920399FFF73EFA002800D037
:100EC000FEE7039420030490254803A9FFF7AEF939
:100ED000002800D0FEE72248FFF76AF9002800D07A
:100EE000FEE71B4E0C213046FFF72AFF002800D0FA
:100EF000FEE71B4D1C4C07E01848018088B23168A2
:100F000008646420FFF762FB2846FFF705FB7D209D
:100F1000C1002846FFF7A5FA2846FFF709FA208006
:100F2000278812488742384600DB10480199C94398
:100F300041430F20C001081841214901FFF7F8F88B
:100F4000142F0099D8D360300146D5E73410024001
:100F500010000020002C0140700000206C000020D8
:100F6000340000200024014030000020340800003C
:100F700002E008C8121F08C1002AFAD17047704762
:100F8000002001E001C1121F002AFBD170470000C0
:100F9000B00F00080000002010000000700F0008D3
:100FA000C00F00081000002080040000800F00081F
:100FB00000366E0101000000040000000000000087
:04000005080000C12E
:00000001FF
